:020000040000FA
:10000000E80900107D020000810200008302000068
:100010008502000087020000890200000000000045
:100020000000000000000000000000008B02000043
:100030008D020000000000008F020000BD360000AD
:10004000930200009302000093020000930200005C
:10005000930200009302000093020000930200004C
:10006000930200009302000093020000930200003C
:1000700093020000911900003110000001160000E9
:100080009302000093020000B30B0000ED0B000090
:10009000E90F0000550800009302000093020000E1
:1000A00093020000411E0000930200009302000032
:1000B000914100006B410000C940000081400000F8
:1000C00000F002F800F0AFF80CA030C8083824188F
:1000D0002D18A246671EAB4654465D46AC4201D180
:1000E00000F0A1F87E460F3E0FCCB6460126334203
:1000F00000D0FB1AA246AB46334318470C730000EE
:100100002C7300000023002400250026103A01D3A0
:1001100078C1FBD8520700D330C100D50B607047BF
:1001200010B56E2902D105F098FC10BD702902D1DE
:1001300004F04DFE10BD662902D106F0B7FC10BDDB
:10014000652902D106F0B2FC10BD672902D106F084
:10015000ADFC10BD612902D1C046C04610BD036888
:100160001B0A01D380231943692902D104F0BAFD87
:1001700010BD642902D104F0B5FD10BD752902D16E
:1001800004F0B0FD10BD6F2902D105F065FD10BD72
:10019000782902D104F008FE10BDE92902D105F04A
:1001A00001FD10BDE42902D105F0FCFC10BDF529CC
:1001B00002D105F0F7FC10BDEF2902D105F058FD82
:1001C00010BDF82902D104F0FDFD10BD0368DB0964
:1001D00001D380231943632902D105F0BAFF10BD72
:1001E000732902D105F0BDFF10BDE32902D105F04E
:1001F000C7FF10BDF32902D105F0CAFF10BD0020D2
:1002000010BD1FB506F010F804000020002106F014
:10021000DFFB401C60600020002106F0C3FBE060B3
:100220001FBD10B510BD05F0D7FF1146FFF7E9FF60
:1002300003F079FA06F0F8FA03B4FFF7F2FF03BC13
:1002400000F066FC70B505460C46164602E00FCC81
:100250000FC5103E102EFAD2082E02D303CC03C5D0
:10026000083E042E07D301CC01C5361F03E02178D8
:100270002970641C6D1C761EF9D270BD08480047B9
:10028000FEE7FEE7FEE7FEE7FEE7FEE7FEE7FEE746
:10029000FEE7FEE703480449024A044B70470000AA
:1002A000C1000000E8070010E8090010E80700108E
:1002B000704700007CB51D4616460C00009001D02A
:1002C0000019401E084B7B442A466946019030467F
:1002D00005F0DBFB002C054603D06946002000F04A
:1002E00008F828467CBD0000E757000070477047BB
:1002F00070470A681070521C0A607047FFFFFFFFCA
:100300003249334A11600121324A116051600021A3
:1003100051600121516000BF2E494968C907C90FCA
:100320000029F9D02B4940398868400A400203214E
:100330000143284A403A91602749896B80229143C2
:10034000254A916300BF23494039C968C907C90FCD
:100350000029F8D003211F4A1163012151630021B4
:1003600051630121516300BF1A49496BC907C90F85
:100370000029F9D00121174A9163154909688900BC
:10038000164A116011460968154A1160704700B598
:100390000220104940390860002008620E48806B36
:1003A000202188430C498863002300E05B1CFF2B5D
:1003B000FCD9FFF7A5FF0748403000680121090478
:1003C000084304494031086000BD0000001BB7002D
:1003D000000000104080044000820440040000102F
:1003E00008000010A0211C4A51621B49C03108615D
:1003F0000121194AC032516100215161012151612D
:1004000000BF1549C0314969C907C90F0029F8D093
:100410000121114AC03291611049896B40229143F8
:100420000E4A916370470C49C031086201210A4AA3
:10043000C0325162002151620121516200BF064960
:10044000C031496AC907C90F0029F8D00121024A01
:10045000C032916270470000008004400082044076
:1004600010B5F548006840210843F34908601F2093
:1004700000F0DBF91E2000F0D8F91D2000F0D5F9BE
:100480001C2000F0D2F910BD70B5049C002806D0E5
:10049000012838D002286AD003287BD19CE0002AAA
:1004A00018D1E64D6D6801268E40B543E34E756068
:1004B000002B07D13546AD6801268E40B543DF4E8F
:1004C000B5600EE0DD4DAD6801268E403543DB4E54
:1004D000B56006E0D94D6D6801268E403543D74E94
:1004E0007560002C07D1D54DED6801268E40B543CF
:1004F000D24EF56006E0D14DED6801268E403543C1
:10050000CE4EF5609DE0002A18D1CD4D6D680126D4
:100510008E40B543CA4E7560002B07D13546AD6895
:1005200001268E40B543C64EB5600EE0C44DAD68A1
:1005300001268E403543C24EB56006E0C04D6D6861
:1005400001268E403543BE4E7560002C07D1BC4D50
:10055000ED6801268E40B543B94EF56006E0B84D12
:10056000ED6801268E403543B54EF56069E0002AFE
:1005700019D1B44D6D6801268E40B543B14E7560FA
:10058000002B08D13546AD6801268E40B543AD4EEF
:10059000B5600FE054E0AB4DAD6801268E403543A9
:1005A000A84EB56006E0A74D6D6801268E40354324
:1005B000A44E7560002C07D1A24DED6801268E4037
:1005C000B543A04EF56006E09E4DED6801268E40D5
:1005D00035439C4EF56034E0002A18D19A4D6D6881
:1005E00001268E40B543984E7560002B07D13546E5
:1005F000AD6801268E40B543934EB5600EE0924D36
:10060000AD6801268E4035438F4EB56006E08E4DB5
:100610006D6801268E4035438B4E7560002C07D1E6
:10062000894DED6801268E40B543874EF56006E0A2
:10063000854DED6801268E403543834EF56000E020
:1006400000BF00BF70BD002806D001280CD00228D2
:1006500012D0032820D117E0784A126901238B4079
:100660001A43764B1A6118E0754A126901238B40D0
:100670001A43734B1A6110E0724A126901238B40CE
:100680001A43704B1A6108E06F4A126901238B40CC
:100690001A436D4B1A6100E000BF00BF704700288D
:1006A00006D001280CD0022812D0032820D117E050
:1006B000624A126901238B409A43604B1A6118E029
:1006C0005F4A126901238B409A435D4B1A6110E027
:1006D0005C4A126901238B409A435A4B1A6108E025
:1006E000594A136901228A409343574A136100E033
:1006F00000BF00BF704710B502460020002A06D098
:10070000012A0DD0022A14D0032A24D11AE04B4B1F
:100710009B6901248C402340002B00D001201BE06A
:10072000474B9B6901248C402340002B00D00120C3
:1007300012E0444B9B6901248C402340002B00D0E5
:10074000012009E0404B9B6901248C402340002B91
:1007500000D0012000E000BF00BF10BD002806D07F
:1007600001280CD0022812D0032820D117E0334AE8
:10077000D26901238B401A43304BDA6118E0304ACA
:10078000D26901238B401A432D4BDA6110E02D4AC8
:10079000D26901238B401A432A4BDA6108E02A4AC6
:1007A000D26901238B401A43274BDA6100E000BF76
:1007B00000BF704730B513468B408400234D2D5940
:1007C00001248C40A4002B5130BD024690001F4BE9
:1007D0001B580120884080001858704730B5002A07
:1007E00011D08300194CE3580124E4031B191B6842
:1007F00001248C4023438400144D2C590125ED0322
:100800006419236010E08300104CE3580124E403D2
:100810001B191B6801248C40A34384000B4D2C59E9
:100820000125ED036419236030BDC206D20E0121FB
:100830009140074A1160704780800440008000505A
:10084000008001500080025000800350BC6A00000C
:1008500000E100E070B500BF894A9268D0B2401054
:100860004007400F032822D1854A5269D1B29E2207
:100870000A40002A05D0834A1160814A1268D3B227
:1008800070BDCA07D20F002A3FD07D4C2468E5B264
:100890007D4C2268541C7C4E34607C4CA5543246FE
:1008A0001268802A31D30022344622602DE00228CB
:1008B00011D1734C2468E5B2734C2268541C724EFB
:1008C0003460724CA55432461268802A1DD300222F
:1008D0003446226019E0062807D16A4A1268FF24CC
:1008E00001342243674C22600FE001280DD1644A95
:1008F0005269D1B220220A40002A03D00122644C5E
:10090000227002E00022624C227000BFB8E7F8B506
:10091000044601205E49087000205B4908601520EC
:10092000012181405B4A116000BF5B48406AC008FA
:10093000C000594948620846406A012108435649A7
:1009400048620846806AC008C00088620846806A1B
:100950000121084350498862504800680121090379
:1009600008434E4908600120886183204449C860DB
:100970004A48866931464A48006804F063FB070923
:100980002146384604F05EFB0546280A3C4948608B
:10099000E8B208600320C8600720886008464669FE
:1009A00000BF37484069602108406028F9D101E064
:1009B0003348066832484069C007C00F0028F7D1A5
:1009C000152001218140334A803A116000BF052083
:1009D0002B494860F8BD0BE000BF294A526920232B
:1009E0001A40002AF9D00278254B1A60401C491E93
:1009F0000029F1D1704700BF2149496920221140E7
:100A00000029F9D01E490860704700B5034603E08D
:100A100018785B1CFFF7EFFF18780028F8D100BDAD
:100A20000FB400B59BB01DA80090642101A8009BE5
:100A30001C9AFFF73FFC01A8FFF7E7FF002000909A
:100A40001BB008BC04B018470146164800680E4A9F
:100A50001268904211D00D48124A1268805C0870EA
:100A600010480068401C0F4A10601046006880283B
:100A700001D300201060012070470020FCE7000037
:100A8000008000400C000010140000103001001025
:100A90001000001080E100E08040044080800440AD
:100AA000080000101800001000BF1F4949692022EB
:100AB00011400029F9D01C490860704710B5034661
:100AC0000C461846FFF7F0FF10BD00BF174800683E
:100AD0000028FBD006201449486000201349086014
:100AE00007201149486012480078704710B5044645
:100AF000FFF7EBFF0346FFF7D7FF10BD00B5034636
:100B00001846FFF7D1FF00BD01460020C0437047E3
:100B100000BFFEE700BF04484069C007C00F0028BF
:100B2000F9D00148006870470080004014000010B0
:100B30003001001070B504460D46002C1BD1022078
:100B4000FE4948600020C8607D21C900FC4800685B
:100B500004F078FA6843F9498861FF2008600420AE
:100B600048610120486000BFF4484068C007C00FDA
:100B70000028F9D11CE0012C1AD10220F14948606B
:100B80000020C8607D21C900ED48006804F05AFAD1
:100B90006843EC498861FF20086004204861012017
:100BA000486000BFE7484068C007C00F0028F9D17F
:100BB00070BDE2480068C007C00F002807D00120C0
:100BC000DE490860E0480068401CDF490860DB48F7
:100BD000006810210840002807D01020D74908607D
:100BE000DA480068401CD94908607047D548006859
:100BF000C007C00F002807D00120D2490860D448A0
:100C00000068401CD2490860CE48006810210840A6
:100C1000002807D01020CB490860CE480068401C4F
:100C2000CC4908607047002803D10121C34A5160B4
:100C300002E00121C34A51607047002803D100211E
:100C4000BE4A516002E00021BE4A51607047014631
:100C5000002906D1B94A506802221043B74A5060B1
:100C600005E0B84A506802221043B64A5060704707
:100C700070B504460D46002C47D1B74800680121E5
:100C800049020843B4490860B448006AC008C0007B
:100C9000B24908620846006A02210843AF49086267
:100CA0000846406AC008C00048620846406A0221FF
:100CB0000843AA4948620846806AC008C0008862A2
:100CC0000846806A02210843A4498862A348803804
:100CD0000069C008C000A149803908610846006960
:100CE000022108439D498039086100209649086027
:100CF00096490860914885610520904988620320E3
:100D00004861122000F063F922E0012C20D19248C2
:100D10000068A10208439049086090484069C008F3
:100D2000C0008E49486108464069022108438B494A
:100D300048610020864908608649086081488561CD
:100D400005208049886203204861132000F03FF9A4
:100D500070BD70B504460D46002C12D17E48006867
:100D60000121490208437C49086000207649086057
:100D700072488561032071494861122000F027F90B
:100D800012E0012C10D174480068A1020843724996
:100D9000086000206E4908606A488561032069493F
:100DA0004861132000F013F970BD30B505460C46BC
:100DB00013462846FFF741FF012D66D166480068BB
:100DC000A902084364490860B320C00018435D4984
:100DD000C863D807C00F00280ED060484038C06BE9
:100DE000C008C0005D494039C8630846C06B032194
:100DF00008435A494039C8630220184000280BD0E4
:100E000056480068C008C000544908600846006899
:100E100003210843514908600420184000280BD0E2
:100E20004E480069C008C0004C4908610846006986
:100E300003210843494908610820184000280BD0C5
:100E400046484069C008C0004449486108464069B6
:100E50000221084341494861012018433949403182
:100E600048633F4804600068364948623C4800686F
:100E7000400888613A4800684008C86138480068FE
:100E800040080862022048616FE033480068012191
:100E90004902084330490860CB20C0001843274965
:100EA000C8630220184000280BD02C48806AC00874
:100EB000C0002A4988620846806A022108432749FF
:100EC00088620420184000280ED024488038006929
:100ED000C008C00021498039086108460069022124
:100EE00008431E49803908610820184000280ED0A8
:100EF0001A484038406BC008C00018494039486360
:100F00000846406B032108431449403948630820D0
:100F100018430A4940314863124804600068074991
:100F200048621048006888610E4800684008C8613F
:100F30000C48006840080862081515E000400140B0
:100F40000800001000800140240000102C00001058
:100F500028000010300000108080044080400440D1
:100F60003800001034000010486130BD002816D051
:100F7000002906D0012907D0022908D003290CD165
:100F800008E0164B9A6109E0144BDA6106E0134B56
:100F90001A6203E0114B5A6200E000BF16E000291C
:100FA00006D0012907D0022908D003290CD108E076
:100FB0000B4B9A6109E00A4BDA6106E0084B1A62B2
:100FC00003E0074B5A6200E000BF00BF7047C20653
:100FD000D20E01219140034A116070470080014008
:100FE0000040014000E100E0F949C869C107C90FAC
:100FF000002907D0F7490968491CF64A1160012108
:10100000F34A116202210140002907D0F249096820
:10101000491CF14A11600221ED4A1162042101408C
:10102000002904D0ED490968491CEC4A1160704759
:10103000EB49C869C107C90F002907D0E949096808
:10104000491CE84A11600121E54A11620221014070
:10105000002907D0E4490968491CE34A11600221CC
:10106000DF4A116204210140002904D0DF490968E8
:10107000491CDE4A1160704710B50446002C47D168
:10108000DB48406801210843D9494860D84880308E
:101090000068C9140843D6498031086002204861BD
:1010A000D448006AC008C000D24908620846006AF5
:1010B00001210843CF4908620846406AC008C000C1
:1010C00048620846406A01210843CA494862012033
:1010D000C84940310863C7490863C5488030006883
:1010E00040210843C24980310860C2484038C06985
:1010F000C008C000BF494039C86101220221002058
:10110000FFF76CFB012202210020FFF753FB54E0A4
:10111000B748406804210843B5494860B448803066
:101120000068012189040843B14980310860022028
:10113000C861B048C069C008C000AE49C86108466F
:10114000C06902210843AB49C861AA484030C06861
:10115000C008C000A7494031C8600846C0680221E5
:101160000843A4494031C860A2484038806AC0089A
:10117000C000A049403988620846806A02210843BD
:101180009C49403988629A48803000684021084371
:10119000974980310860974840388068C008C0008F
:1011A000944940398860012200210220FFF716FB94
:1011B000012200210220FFF7FDFA10BD10B5044600
:1011C000002C69D18A484068012108438849486059
:1011D000874880300068C914084385498031086019
:1011E000022048618348006AC008C0008149086243
:1011F0000846006A012108437E4908620846406AA1
:10120000C008C00048620846406A01210843794985
:10121000486202207749403108637649C8607448C3
:10122000803000684021084371498031086071486E
:101230000068C008C0006F49086001220421022034
:10124000FFF7CCFA012204210220FFF7B3FA694824
:1012500040380068C008C000664940390860012273
:1012600006210220FFF7BAFA012206210220FFF729
:10127000A1FA60484038006AC008C0005D494039A2
:101280000862012207210220FFF7A8FA01220721A4
:101290000220FFF78FFA54E05548406804210843C4
:1012A000534948605248803000680121890408434E
:1012B0004F49803108600220C8614E48C069C008AB
:1012C000C0004C49C8610846C06902210843494929
:1012D000C86148484030C068C008C0004549403136
:1012E000C8600846C0680221084342494031C860CE
:1012F00040484038806AC008C0003E494039886292
:101300000846806A022108433A49403988623848D1
:1013100080300068402108433549803108603548F5
:1013200040388068C008C0003249403988600122D6
:1013300000210220FFF752FA012200210220FFF7CC
:1013400039FA10BD70B5054600BF002D16D12A48E8
:101350001F490860FE200861002404E01C488068E2
:10136000C6B2601CC4B2082CF8DB142000F03BF9B4
:101370000220174948600320486115E01E481849BB
:10138000086002200861002404E015488068C6B2A5
:10139000601CC4B2082CF8DB0E2000F024F90220F7
:1013A0000F4948600320486170BDF8B507460D46F7
:1013B000164600980090002F31D1681E07210902BF
:1013C0000843034908600846066100241CE0000049
:1013D0000000044040000010440000103C000010D9
:1013E000008005404C000010500000104800001024
:1013F0000080044040400440070700007D488068AA
:10140000C0B20090601CC4B2082CF7DB142000F0BE
:10141000EAF80220774948600320486119E0681E15
:101420000721090208437449086008460661002440
:1014300005E071488068C0B20090601CC4B2082CFE
:10144000F7DB0E2000F0CFF802206B494860032044
:101450004861F8BD70B500BF00232DE0002815D10C
:1014600000BF644DED6812263540022DF9D10D788C
:10147000604EB560491C00BF5E4DED6814263540D6
:10148000042DF9D15B4DAD68ECB214E000BF5A4DAC
:10149000ED6812263540022DF9D10D78564EB56013
:1014A000491C00BF544DED6814263540042DF9D178
:1014B000514DAD68ECB25B1C9342CFD370BD30B5DB
:1014C00000231FE000280ED1FF244A4DAC6000BF6E
:1014D000484CE46814252C40042CF9D1454CA468F0
:1014E0000C70491C0DE0FF24434DAC6000BF424C22
:1014F000E46814252C40042CF9D13F4CA4680C70EE
:10150000491C5B1C9342DDD330BD0246002A1AD130
:1015100000BF3848C068122318400228F9D1354866
:10152000816000BF3348C068102318400028F9D1FB
:1015300000BF3048C068142318400428F9D12D4852
:10154000806880B2704700BF2B48C06812231840E3
:101550000228F9D12848816000BF2748C0681023BD
:1015600018400028F9D100BF2348C0681423184050
:101570000428F9D12048806880B2E3E770B50446BA
:101580000D46002C2BD1002207210220FFF712F973
:1015900000BF1848C06802210840002805D015483F
:1015A000C06810210840002801D0012000E0002080
:1015B0000028EED10F48856000BF0E48C06810219A
:1015C00008400028F9D100BF0A48C068142108402B
:1015D0000428F9D1012207210220FFF7EBF8054882
:1015E000806880B270BDC206D20E01219140034ACC
:1015F00011607047000004400080054000E100E0F9
:1016000010B5012080074068C1B24807400F00288C
:101610006FD1C810030005F098F90CB3071523AB80
:10162000393AB464AC7496B30020AC4A1060AC484C
:101630000078012292079060282090610120A94A39
:101640001060A2E00020A84A1060A548007801229E
:1016500092079060282090610220A24A106094E0D6
:10166000A048006801280DD19C4A1068421C9B4B81
:101670001A609E4A1268125C01239B079A6004203C
:10168000984A10600820C20690617EE000BF93482F
:101690000068974A126890420ED2904A1068421C25
:1016A0008E4B1A60914A1268125C01239B079A6064
:1016B00004208C4A106010E08E480068002806D094
:1016C0002020420610600320864A106005E00520B5
:1016D000844A10601020820610600820C2069061C3
:1016E00053E084480068012804D104200207906177
:1016F00003E045E00420020710600820C206906164
:1017000043E0012292079268D3B2774A1068421CE4
:10171000754C2260784A1268135420460068754A56
:101720001268904205D204206E4A106002071060D1
:1017300005E005206B4A1060042002079061082034
:10174000C206906121E0012292079268D3B2664AF4
:101750001068421C644C2260674A126813540520CA
:10176000604A1060102082061060082090610CE032
:1017700000BF0820C206906105205A4A106004E0AC
:1017800000BF0820C206906100BF00BF10BD00214D
:101790000020202253061A600BE0524A1268012AE8
:1017A00001D1012006E0554A914201D3002001E019
:1017B000491CF2E700BF704710208106086008202E
:1017C000886100BF012080070068102108400028C0
:1017D000F8D10120704710B50246494840680223FD
:1017E0001843474B58604648803000682023184310
:1017F000434B803318604348006B80098001414BA4
:1018000018631846006B012318433E4B18631846B3
:10181000406B8009800158631846406B01231843D0
:10182000384B58636C201B049861FF20813058614D
:101830001861022A01D15007C1600F2001238340A3
:10184000314C236000BF402003061860012010BD0A
:1018500000B5002023490860234908601F4908603B
:10186000FFF795FF012803D0FFF7A6FF002000BD7A
:1018700006E01C480068052802D1FFF79DFF00E044
:10188000F7E700BF0120F2E770B506460C461546A3
:10189000012030431249087017480460154805605C
:1018A000012013490860FFF7D3FF1248006811496F
:1018B000086070BD70B506460C46154608480670AF
:1018C0000A4804600A48056000200A490860FFF7DA
:1018D000BFFF074800680649086070BD7800001027
:1018E0007C00001054000010740000106400001010
:1018F000700000106C00001068000010FFFFFF0077
:10190000008004400040044000E100E030B50246A1
:1019100000BFC84B1B680124E4032340002BF8D10F
:101920007F23C44C6360531C236000BFC14B1B6802
:101930000124E4032340002BF8D118235343BE4C69
:101940001819BC4B5B690124A4032340002B08D069
:10195000B84B19691C466469B84D2C4024042143D6
:1019600003E0B44B5B69DB04590D02C0B14B9B69CA
:101970001B071B0F08C0AF4BDB6908C0AD4B1B6AD0
:1019800008C0AC4B5B6A08C0AA4B9B6A08C030BD5C
:1019900070B500BF36E00120C0033040002816D0EB
:1019A000A4488038456840202840002805D0A44835
:1019B0000068401CA249086070BD802028400028B3
:1019C00020D0A0480068401C9E490860F4E76807E2
:1019D000400F002816D17404640C002C12D0202C67
:1019E00010D8944880384068102188439149803944
:1019F0004860611EC8B2FFF789FF0121601E8000A8
:101A0000914A11508B4880380669002EC3D100BF1F
:101A1000D2E70021002059E0F322864B803B5A6236
:101A200000291BD100229A62884ADA6200221A63D6
:101A3000C21DF93292000123DB031A437D4B803B28
:101A40005A63C207D20F002A02D1814A9A6326E064
:101A5000804A784B803B9A63012120E07E4A754B97
:101A6000803B9A627D4ADA6201221205821892B2A4
:101A70001A63012212058218120C03239B031A43D6
:101A80006C4B803B5A63C207D20F002A02D1704AC6
:101A90009A6304E06F4A674B803B9A6300210022FF
:101AA000644B803BDA63634B403B1A605A609A6038
:101AB000421C604B803B1A6200BF5E4A803A126A49
:101AC0000123DB031A40002AF7D1401C2028A3D3AE
:101AD000704710B5044662484068082108436049D1
:101AE00048605F48803000680121490408435C4930
:101AF000803108604F4880380068C007C00F002858
:101B000007D14C4880380068012108434949803991
:101B10000860052053490860464880380068402125
:101B200008434449803908604F48C86000208861F4
:101B300008460068402188433E49803908600846CD
:101B4000006840084000086000BF3A4880380068DC
:101B5000C007C00F0028F8D1FFF75BFF0D2001215F
:101B60008140424A116000BF3248803800680E212F
:101B7000084330498039086010BDF0B503460C4673
:101B8000002A01D100BFFEE702CA002C02D0CE001D
:101B9000B00800E0084620CA082D00D90825012613
:101BA000B6070E40002E0ED1860005277F033E4368
:101BB000204F803F7E6300263E63204EF61EFE626D
:101BC0000026BE620CE0060C07277F033E43194F38
:101BD000803F7E6386B23E63254EFE621E4EBE622D
:101BE0002E07360F2327FF013E43124F803FBE636F
:101BF00040CAFE6340CA0F4F403F3E6040CA7E600D
:101C00001668BE60F7260B4F803F7E62002C02D024
:101C10009E1C3E6203E05E1C064F803F3E6200BF9A
:101C2000044E803E366A0127FF033E40002EF7D166
:101C3000F0BD00008000054030020010FF5F000092
:101C40008400001080000010B0010010FC1F000094
:101C50008810000088140000FFFF0000FF9F0000B4
:101C600000800440800105400123000000E100E005
:101C7000FFDF000070B505466A48806B102188437D
:101C80006849886368480068012149030843664938
:101C90000860002404E00020A100644A5050641C45
:101CA000082CF8D3624840698F2188436049486115
:101CB00008464069012108435D4948615C48403855
:101CC000C06A8F2188435A494039C8620846C06AB1
:101CD0000121084356494039C862554880698F211F
:101CE0008843534988610846806901210843504967
:101CF000886129464F48006803F0A4F9401E00029D
:101D00004D4908434D49086070BD70B505464548CA
:101D1000806B102188434349886343480068012150
:101D20004903084340490860002404E00020A10062
:101D30003E4A5050641C082CF8D33D484038406B54
:101D4000872188433A49403948630846406B02215D
:101D5000084337494039486335480068872188433C
:101D6000334908600846006802210843304908608A
:101D700029463048006803F065F9401E00022E49EC
:101D800008432E49086070BD30B50146082900DBC4
:101D900000212A480068000A0002284C20602046E2
:101DA00004680120884001252D0628430443234868
:101DB000046008E08800214C00190269D00FC007B8
:101DC000002800D000E0F5E700BF1C4800680724A9
:101DD0002406A043194C20600120800710400028F1
:101DE00001D0002030BD1004830D1846FAE71348D7
:101DF0000068072109060840002804D00F48006841
:101E000088430E4908600D480068FF2108430B49CC
:101E10000860084600680121090408430749086072
:101E200070470000008204408080044030050010AC
:101E300080400440080000100100200000C0014064
:101E40004249C968424A116003E04049C968404AB2
:101E500011603F4909683F4A9142F6D2AA213B4AA4
:101E6000916055219160002000E0401C0121C904CF
:101E70008842FAD33549C968354A116003E03349CD
:101E8000C968334A116032490968012252029142FD
:101E9000F5D32E490968042291432C4A116011465A
:101EA000096808229143294A116070472A49096844
:101EB0000122D2031143284A11603F21264A803A69
:101EC00051622649896B40229143244A9163022141
:101ED000214A4032116101215161002151610121EA
:101EE000516100BF1C4940314969C907C90F002928
:101EF000F8D08021184A403291610021144A1160C3
:101F0000192101228A40164B1A6000BF15490F4A59
:101F100051600913516001211160AA21916055217E
:101F20009160002000E0401C0121C9048842FAD3DE
:101F30000849064A5161112111600B4991617047AE
:101F4000AA20024988605520886070470040004000
:101F50008C000010FF0100008080044000820440DB
:101F600000E100E0FFFF3F00FF020000F1B582B09A
:101F700021488469406901902049029848430090B3
:101F80000199009803F05EF807460199009803F064
:101F900059F80D46002F0ED000260AE000BF164863
:101FA0008069A042FBD300BF13488069A042FBD8E0
:101FB000761CBE42F2D3002D1DD0A54206D200BF32
:101FC0000D488069611B8842FAD814E0A54205D10A
:101FD00000BF09488069A042FBD30CE000BF06485F
:101FE0008069A042FBD300BF034881692A1B019886
:101FF000801A8142F8D8FEBD00E000E080BB0000FE
:1020000010B5002203211046FEF7E8FB0022042150
:102010000120FEF7E3FB002208210120FEF7DEFB92
:10202000002209210120FEF7D9FB00220A2101200C
:10203000FEF7D4FB00220B210120FEF7CFFB10BDE1
:1020400010B508210120FEF7C0FB002801D10120B6
:1020500010BD09210120FEF7B8FB002801D10220A4
:10206000F6E70A210120FEF7B0FB002801D103208A
:10207000EEE70B210120FEF7A8FB002801D1042088
:10208000E6E703210020FEF7A0FB002801D1052090
:10209000DEE704210120FEF798FB002801D106208D
:1020A000D6E70020D4E7000010B501220921022064
:1020B000FEF794FB012209210220FEF77BFB01229F
:1020C0000A210220FEF78AFB01220A210220FEF7E4
:1020D00071FB01220B210220FEF780FB10BD70B5C1
:1020E0000446202C01DBFF2403E0E006C00E11496A
:1020F0000C5C002209210220FEF75CFB002511E0A8
:1021000000220A210220FEF755FBE207D20F0B2125
:102110000220FEF74FFB641001220A210220FEF785
:1021200049FB6D1C082DEBD3012209210220FEF78B
:1021300041FB70BDDC6A000000BF0146421ED0B208
:102140000029FAD1704770B50346002510E000243D
:102150000AE0002604E0CB20FFF7EEFF701CC6B2B9
:102160000F2EF8DB601CC4B2832CF2DB681CC5B2F6
:102170009D42ECDB70BD10B5044600220521022013
:10218000FEF718FB002204210220FEF713FB214674
:102190000020FFF7BAF9012204210220FEF70AFB12
:1021A000012205210220FEF705FB10BD10B50446F3
:1021B000012205210220FEF7FDFA0022042102205F
:1021C000FEF7F8FA21460020FFF79FF901220421CB
:1021D0000220FEF7EFFA012205210220FEF7EAFABB
:1021E00010BD70B504462546E117090F49190911BC
:1021F0000901611AC8B2FFF7BEFF2546E117090FB2
:10220000491909111031C8B2FFF7B5FF70BD10B5FB
:1022100004462020FFF7AFFF2046FFF7ACFF10BDBC
:1022200070B505460C462120FFF7A5FF2846FFF7AD
:10223000A2FF2046FFF79FFF70BD70B505460C4614
:102240002220FFF798FF2846FFF795FF2046FFF76B
:1022500092FF70BD10B50446402121430846FFF7A8
:102260008AFF10BD10B504468120FFF784FF204689
:10227000FFF781FF10BD10B504468D20FFF77BFFEF
:10228000102121430846FFF776FF10BD10B5044624
:10229000A02121430846FFF76EFF10BD10B504468C
:1022A000A42121430846FFF766FF10BD10B5044680
:1022B000A62121430846FFF75EFF10BD10B5044676
:1022C000A820FFF758FF2046FFF755FF10BD10B5B7
:1022D0000446AE2121430846FFF74DFF10BD10B55F
:1022E0000446B02121430846FFF745FF10BD10B555
:1022F0000446C02121430846FFF73DFF10BD10B53D
:102300000446D320FFF737FF2046FFF734FF10BD08
:1023100010B50446D520FFF72EFF2046FFF72BFF10
:1023200010BD10B50446D920FFF725FF2046FFF762
:1023300022FF10BD10B50446DA20FFF71CFF022172
:1023400021430846FFF717FF10BD10B50446DB20F8
:10235000FFF711FF2046FFF70EFF10BD10B5E32079
:10236000FFF709FF10BD70B50646002410E02046B7
:10237000FFF7B5FF0020FFF734FF002504E03046EB
:10238000FFF714FF681CC5B2802DF8DB601CC4B2D7
:10239000082CECDB70BD10B50020FFF7E4FF10BD8A
:1023A000FFB581B00D4616461F462C4615E0204667
:1023B000FFF795FF3846FFF714FF0020009006E076
:1023C0000198FFF7F3FE0098401CC0B200900A99F4
:1023D00000988842F4DB601CC4B2701C8442E6DBC7
:1023E00005B0F0BD70B5002413E02046FFF777FF7D
:1023F0000020FFF7F6FE002507E05520FFF7D6FE88
:10240000AA20FFF7D3FE681CC5B2402DF5DB601C87
:10241000C4B2082CE9DB70BD70B50020FFF75FFF88
:102420000020FFF7DEFE002404E00120FFF7BEFEDF
:10243000601CC4B2802CF8DB0720FFF750FF00209F
:10244000FFF7CFFE002404E08020FFF7AFFE601C02
:10245000C4B2802CF8DB002411E02046FFF73FFFD8
:10246000002508E0E8B2FFF7BCFEFF20FFF79EFE64
:1024700028467F30C5B2802DF4DB601CC4B2082C26
:10248000EBDB70BDFFB581B007460D46012F02D0D2
:10249000022F0BD104E0A8002818FE49441805E0DB
:1024A000681E81004018FC49441800BF00BF039813
:1024B000FFF715FF0498FFF794FE002605E020784B
:1024C000FFF774FE641C701CC6B2052EF7DB0020FB
:1024D000FFF76CFE05B0F0BDFFB581B007460D46B5
:1024E0001E462C46334660210120039AFFF7CAFF9F
:1024F0000CE0217833463846039AFFF7C3FF641C8B
:10250000B01DC6B22078002800D100E0F1E700BF7E
:1025100005B0F0BDFFB583B005460E4617460295DF
:10252000344619E02046FFF7DAFE0698FFF759FE19
:10253000002001900AE002990878FFF737FE029820
:10254000401C02900198401CC0B201900C99019867
:102550008842F0DB601CC4B2781C8442E2DB07B026
:10256000F0BDFFB581B00D461446049820388100B7
:102570004018C84946180198FFF7B1FE002D0BD14D
:102580000020FFF72EFE002C03D10020FFF70EFEE7
:1025900002E0FF20FFF70AFE691CC8B2FFF721FE28
:1025A00000270DE0002C03D13078FFF7FFFD04E099
:1025B0003178C943C8B2FFF7F9FD761C781CC7B261
:1025C000052FEFDB002C03D10020FFF7EFFD02E029
:1025D000FF20FFF7EBFD05B0F0BDF8B506460F464E
:1025E00014460025082E19DA08E023783A462946D1
:1025F0003046FFF7B6FFA81D85B2641C207800287E
:1026000001D0012000E00020691C89B2802901DA94
:10261000012100E0002108400028E6D1F8BDFFB507
:1026200081B015461F46A320FFF7A5FD0298FFF7CE
:10263000A2FD2846FFF79FFD0198002802D001283F
:1026400025D111E000240CE0E0B2FFF703FE0026E4
:1026500003E0C820FFF770FD761C0A988642F8D385
:10266000E419AC42F0D312E000240DE0291BC8B2FB
:10267000FFF7F0FD002603E0C820FFF75DFD761CA4
:102680000A988642F8D3E419AC42EFD300BF00BFEA
:102690000020FFF7DFFD05B0F0BDF8B504460D469C
:1026A00016461F46262121430846FFF764FD0020F9
:1026B000FFF761FD2846FFF75EFD3846FFF75BFD3B
:1026C0003046FFF758FD2F20FFF755FD0698FFF71E
:1026D0003AFDF8BDF8B504460D4616461F46A32040
:1026E000FFF749FD3846FFF746FD0698FFF743FD23
:1026F00021462931C8B2FFF73EFD0020FFF73BFD20
:102700002846FFF738FD0898FFF735FD3046FFF7FC
:1027100032FD0798FFF72FFD2F20FFF72CFD0998BA
:10272000FFF711FDF8BD10B52E20FFF724FD10BDF9
:1027300010B50120FFF7CBFD00240CE0E0B2FFF75D
:1027400091FDC820FFF7F8FCC820FFF7F5FCC82072
:10275000FFF7F2FC641CD02CF0D310BD10B5D024D0
:102760000DE0611EC8B2FFF77DFDC820FFF7E4FC55
:10277000C820FFF7E1FCC820FFF7DEFC641E002C38
:10278000EFD10020FFF7A3FD10BD10B50446002CCB
:1027900002D0012C0ED106E00020FFF798FD0120A9
:1027A000FFF77CFD06E00020FFF778FD0120FFF732
:1027B0008EFD00BF00BF10BD0120FFF76FFD0BE0D5
:1027C0000120FFF784FD0220FFF7BDFC0020FFF78A
:1027D0007EFD0220FFF7B7FCF2E710B50020FFF7FF
:1027E00076FD8020FFF794FD3F20FFF767FD002076
:1027F000FFF785FD0020FFF72DFD0020FFF73BFDD3
:102800000220FFF704FD0120FFF740FD0820FFF73D
:102810006EFD1020FFF78EFDCF20FFF723FD222055
:10282000FFF77FFD4020FFF790FD0020FFF736FD0A
:102830000020FFF73BFD0020FFF795FD0120FFF78B
:1028400046FD10BD10B5012205210220FDF7C6FF8F
:102850000020FFF73CFD8020FFF75AFD3F20FFF7E7
:102860002DFD0020FFF74BFD0020FFF7F3FC0420B7
:10287000FFF701FD0220FFF7CAFC0120FFF706FD6C
:102880000820FFF734FD1020FFF754FDCF20FFF79D
:10289000E9FC03E0CC6B000081700000F120FFF741
:1028A00040FD4020FFF751FD0020FFF7F7FC00201E
:1028B000FFF7FCFC0020FFF756FD0120FFF707FDA6
:1028C00010BD00B587B05CA207CA04AB07C30020E7
:1028D000FFF749FD302028230522022100905948A6
:1028E000FFF718FE0520FFF72EFCFFF737FF052046
:1028F000FFF729FCFFF71CFF0520FFF724FC202031
:1029000001234022002100900846FFF788FE0520A1
:10291000FFF719FC202001234022002100901846D7
:10292000FFF77DFE0520FFF70EFCFFF7FCFE0520FC
:10293000FFF709FC01200021202301900093029160
:1029400003900B460A460846FFF7C4FE0520FFF732
:10295000FAFB012000211F22202300930192029103
:1029600003900B460A460846FFF7B4FE0520FFF722
:10297000EAFB022000210122202300930192029110
:1029800003900B4603220846FFF7A4FE0520FFF73D
:10299000DAFB022000211F222023009301920291E2
:1029A00003900B4603220120FFF794FE0520FFF75A
:1029B000CAFB0220002101222023009301920291F0
:1029C00003900B46072204210120FFF783FE052018
:1029D000FFF7B9FB022000211F2220230093019260
:1029E000029103900B46072204210020FFF772FE9C
:1029F0000520FFF7A8FBFFF796FE0520FFF7A3FBD6
:102A0000FF20FFF7B0FC0520FFF79DFBFFF7EAFC76
:102A10000520FFF798FB0020FFF7A5FCFFF7FCFC63
:102A20000520FFF790FB2523032204A90120FFF7CF
:102A300053FD07B000BD0000354E49564953494F7C
:102A40004E0000000C6B0000FFB587B005460E4637
:102A5000174600207B49086008460068069005215B
:102A60000120FDF71CFE012205211046FDF7B6FEF0
:102A7000002205210120FDF79DFE1E20FFF776FABA
:102A8000012205211046FDF795FE002205210120B7
:102A9000FDF7A4FE00200346024605210090012018
:102AA000FDF7F2FC05210120FDF7CDFD002412E029
:102AB000E007C00F00231A46052100900120FDF712
:102AC000E3FC00BF5F48016806988142FAD05D4888
:102AD00000680690641C032CEAD3002482E00120E5
:102AE00000231A4605210090FDF7CEFC00BF554893
:102AF000016806988142FAD0524800680690524810
:102B00000068039000200346024605210090012042
:102B1000FDF7BAFC00BF4B48016806988142FAD025
:102B2000484800680690484801680398814205D2E9
:102B3000454903980968401A029006E04248016836
:102B40000398081A4149081A0290082C10D20A98D2
:102B500000784006010E0A9801703D4902988842AB
:102B60003FD30A980078012108430A99087038E099
:102B7000102C0CD238784006000E38703449029878
:102B800088422ED3387801210843387029E0182C68
:102B90000CD230784006000E30702D4902988842E1
:102BA0001FD330780121084330701AE0202C0CD25A
:102BB00028784006000E287025490298884210D3D4
:102BC00028780121084328700BE005984006000E84
:102BD00005901F490298884203D3012105980843B4
:102BE0000590641C282C00D279E7012000231A46A6
:102BF00005210090FDF748FC00BF124801680698C7
:102C00008142FAD005210120FDF749FD0A9800789C
:102C10000490397804980818C0B204903178049868
:102C20000818C0B20490297804980818C0B204901B
:102C300005990498884202D101200BB0F0BD002014
:102C4000FBE70000040100100801001080BB000039
:102C50001809000008B5002100910122694688206A
:102C6000FEF728FE012269468820FEF70DFE684621
:102C7000007808BD08B5012100910122694688202D
:102C8000FEF718FE012269468820FEF7FDFD684622
:102C9000007808BD704708B50021684601708021A2
:102CA0004170022269468820FEF704FEB448B54907
:102CB000086001200004B449086008BD38B5044626
:102CC000FFF7D8FF05460C21284688430546A0009B
:102CD0002843C5B201216846017045700222694649
:102CE0008820FEF7E7FD002C06D0012C08D0022C2E
:102CF0000AD0032C10D10BE0A148A24908600BE0D8
:102D0000A248A049086007E0A1489E49086003E086
:102D1000A0489C49086000BF00BF38BD38B50024FA
:102D200000210120FEF757FDFFF7B4FFFFF7B3FFC7
:102D30000120FFF7C3FF042100910122694688208A
:102D4000FEF7B8FD012269468820FEF79DFD684622
:102D5000047805210091012269468820FEF7AAFD2A
:102D6000012269468820FEF78FFD68460078000240
:102D7000044384480068444383480168204602F0C5
:102D800061F90446204638BD38B50546FFF762FFB5
:102D900004460C21204688430446A8002043C4B2C0
:102DA0000021684601704470022269468820FEF7BF
:102DB00081FD38BD38B50446FFF74CFF0546AD0828
:102DC000AD00284620430546002168460170457045
:102DD000022269468820FEF76DFD002C06D0012CEA
:102DE00009D0022C0CD0032C13D10EE001200004DA
:102DF000654908600DE0012000036349086008E0B0
:102E0000FF2001306049086003E010205E4908603F
:102E100000BF00BF38BD38B5044600255A490968CF
:102E2000614308465749096802F00CF9054602213A
:102E3000684601702804010E684641700222694606
:102E40008820FEF737FD38BD38B5044600254E49C9
:102E50000968614308464B49096802F0F3F80546E2
:102E60000321684601702804010E68464170022261
:102E700069468820FEF71EFD38BD38B50546FFF7C8
:102E8000F9FE044620212046884304462046284374
:102E90000446012168460170447002226946882078
:102EA000FEF708FD38BD10B5FFF7E4FE044620200C
:102EB0002040400910BD38B5FFF7DCFE0446202154
:102EC000204688430446412168460170447002222E
:102ED00069468820FEF7EEFC38BD38B5FFF7BAFE2C
:102EE000044680212046884304460021684601703C
:102EF0004470022269468820FEF7DCFC402004432F
:102F00000021684601704470022269468820FEF75D
:102F1000D1FC38BD10B586B0FFF73DFA1EA20021E6
:102F20000846FFF75AFB00210120FEF754FCFFF78B
:102F3000B1FEFFF7B0FE0120FFF7C0FE18A001F0C0
:102F40007DFE19E0FFF7EAFE0446234615A2142190
:102F5000684601F081FE6A4600210220FFF73DFB32
:102F6000214612A001F06AFEFA20FEF7FFFFFFF7EC
:102F700067F8062800D100E0E4E700BF06B010BD06
:102F8000CD0300009000001094000010340F0000EA
:102F9000D03C000040F300004C69676874000000FA
:102FA0000D0A000025642020202000002564202038
:102FB0000000000008B509210091012269463A206D
:102FC000FEF778FC012269463A20FEF75DFC684670
:102FD000007808BD08B516210091012269463A2003
:102FE000FEF768FC012269463A20FEF74DFC684670
:102FF000007808BD38B50446162168460170447053
:10300000022269463A20FEF755FC38BD10B505206E
:10301000FFF7F0FF10BDF8B504460D46164600BF99
:10302000FFF7C8FFC007C00F0028F9D006210091A4
:10303000012269463A20FEF73DFC012269463A200A
:10304000FEF722FC6846007840B22070072100910C
:10305000012269463A20FEF72DFC012269463A20FA
:10306000FEF712FC6846007840B2287008210091F3
:10307000012269463A20FEF71DFC012269463A20EA
:10308000FEF702FC6846007840B23070F8BD70B5BB
:1030900005460024FFF79EFF04460C212046884386
:1030A0000446A8002043C4B22046FFF7A3FF70BD2A
:1030B00070B505460024FFF78DFF0446A408A40060
:1030C0002046284304462046FFF794FF70BD70B5A4
:1030D0008AB000240025002600210391029101916D
:1030E000FFF759F935A200210846FFF776FA0021CB
:1030F0000120FEF770FBFFF789FF01AA02A903A8D0
:10310000FFF789FF68460C2141564C420821415681
:103110004D42042141564E4201AA02A903A8FFF7DD
:103120007AFF6846007B001941B203916846007A35
:10313000401941B2029168460079801941B201916B
:1031400068460C23C3561FA2142104A801F084FD75
:1031500004AA00210220FFF740FA68460C214156DC
:103160001BA001F06BFD68460823C3561CA2142166
:1031700004A801F071FD04AA00210320FFF72DFA35
:1031800068460821415619A001F058FD68460423FD
:10319000C3561AA2142104A801F05EFD04AA00215E
:1031A0000420FFF71AFA68460421415616A001F0E0
:1031B00045FDFA20FEF7DAFE0AB070BD417869736A
:1031C0002D33000041636320783A202564202000DD
:1031D0000D0A41636320783A2025642C20200000EA
:1031E00041636320793A20256420200041636320F5
:1031F000793A2025642C20200000000041636320E0
:103200007A3A202564202000416363207A3A202501
:10321000642E200010B501460C78641EE2B2002333
:1032200005E0CC5CAA2C01D1541CE2B25B1C0C78EA
:103230009C42F6D8087803E08C5C6040541EE2B2F1
:10324000002AF9D110BDF3B581B00D4680220821C6
:103250000020FEF7AAF80198FFF7DCFF0090AA21F2
:103260000020FEF78BF90024BB210020FEF786F931
:103270002855641C00270AE00198C15D0020FEF774
:103280007DF92855641C0120FEF770FE7F1C019813
:103290000078B842F0D800200099FEF76FF9285561
:1032A000641CC820FEF762FE012028700021084639
:1032B000FEF764F9AA2806D0022208210020FEF7B2
:1032C00074F80020FEBD0120FEF750FE00210846E4
:1032D000FEF754F9BB2806D0022208210020FEF791
:1032E00064F80020EEE70120FEF740FE01984078E8
:1032F000012806D0202806D0212806D0222808D16F
:1033000005E00B2607E0072605E0132603E0032669
:1033100001E0072600BF00BF0027002409E00021CC
:103320000846FEF72BF928550120FEF71FFE7F1CEB
:10333000641CB742F3D9022208210020FEF735F8B9
:10334000E0B2BFE770B586B00546142101A801F0D0
:1033500077FE002208210220FDF740FA01A8FFF7BE
:1033600059FF06466846007901A9085CB04212D1AF
:10337000002404E0A01C01A9085C2855641C042C4E
:10338000F8DB002028550BA200210720FFF725F9C4
:10339000012006B070BD09A200210620FFF71DF92B
:1033A0000CA200210720FFF718F90CA001F046FC41
:1033B0000020EEE74F6B202020202000202020203E
:1033C00020202020202020202020202020202020FD
:1033D000200000004E6F2043617264000D0A4661B8
:1033E000696C200070B504460D460022114602208B
:1033F000FDF7E0F9E8008022104362001043014627
:103400000120FEF782F800210120FEF77EF8C6B207
:10341000012200210220FDF7CDF9304670BD10B524
:1034200002210120FFF7DEFF0446A406A40E042CAF
:103430002FD100210120FFF7D5FF9A499A4A12881F
:103440008854084698490988405CDD2807D1002047
:1034500095490880DD209349934A12888854914801
:1034600091490988405CAA2807D100208E4908802C
:10347000AA218C488C4A128881548B480088401CB1
:1034800089490880084600886C2807DB00200880EE
:1034900004E000210120FFF7A5FF044610BD70B530
:1034A00004460D461646002211460220FDF782F919
:1034B000E8006200104301460120FEF726F831467D
:1034C0000120FEF722F8012200210220FDF772F907
:1034D00070BDF8B505460E46BF2203212846FFF70A
:1034E000DEFF02212846FFF77DFF0446204610211B
:1034F0000843024602212846FFF7D1FF0322114666
:103500002846FFF7CCFF01212846FFF76BFF044652
:10351000204610218843024601212846FFF7BFFFBD
:1035200004212846FFF75EFF044620468021884399
:10353000024604212846FFF7B2FF832203212846D2
:10354000FFF7ADFF3146E120000301F07BFD84B2BF
:10355000E2B200212846FFF7A2FF221201212846ED
:10356000FFF79DFF032211462846FFF798FF002131
:103570002846FFF737FF002203210846FDF72EF902
:10358000002003460246032100900846FCF77CFF1A
:1035900003210846FDF757F8012211462846FFF798
:1035A0007EFF00212846FFF71DFFF8BD70B50546D8
:1035B0000C4600BF05212846FFF714FF20210840D4
:1035C0000028F7D0224600212846FFF768FF70BD8B
:1035D00010B5044621460020FFF7E8FF10BD10B5E6
:1035E000044604E021780020FFF7E0FF641C207807
:1035F0000028F7D110BD10B5044621460120FFF781
:10360000D5FF10BD10B5044604E021780120FFF776
:10361000CDFF641C20780028F7D110BD0246002A97
:1036200017D122480088224B1B88984229D0214874
:103630001E4B1B88C05C08701C480088401C1B4B3C
:103640001880184600886C2801DB002018800120B3
:10365000704719480088144B1B88984211D01148B4
:10366000154B1B88C05C087013480088401C124B27
:103670001880184600886C2801DB00201880012083
:10368000E6E70020E4E710B5044621460020FFF7F6
:10369000C5FF10BD10B5044621460120FFF7BEFF4F
:1036A00010BD0000BC0500109C0000109A00001026
:1036B00098000010500500109E00001010B5FE4844
:1036C0000068401CFC49086008460068FF21F5318D
:1036D00088420FD1002201210320FDF76BF8F74843
:1036E0000078401CF549087008460078C006C00EF6
:1036F000087017E0F04800687D21C900884211D3A6
:10370000EF480068401CEE490860EE480068401C25
:10371000EC490860012211460320FDF74BF8002018
:10372000E549086010BD88B0E748E849086001F045
:1037300082F90120E649087046E2E1480068022863
:1037400046D924220021E34801F053FCE24AE34930
:10375000E34800F053FDE34800F0B4FDE24800F018
:103760000EFEE24800F05FFEE04800680390DA4891
:103770000068DC49029003C901910090DA480068B2
:103780000790D64800680690D54800880590014605
:10379000D748079B069A01F0B1F80020D4490346A8
:1037A0000246009101906521D24801F0BDF8002049
:1037B000D049242300910190C5480278BB21C54817
:1037C00001F0D7F8C34801F0F0F80020BC490860C8
:1037D000BC480068032804D9FEF7B2FB0020B949B1
:1037E00008602422C449C54801F0C2FBC3480078E0
:1037F000DD2864D1C1484078B549097888425ED156
:10380000BE480079030003F0A0F80C070D282F1321
:10381000555555191F243355002211460320FCF736
:10382000C9FF4BE0012200210320FCF7C3FF45E064
:10383000002202211046FCF7BDFF3FE001220221D9
:103840000020FCF7B7FF39E09C480078FEF747FC02
:1038500034E02020FEF743FC30E0002000F028FA9E
:10386000012000F025FA29E0002000F021FA25E0EF
:10387000012200210320FCF79DFF012202210020EC
:10388000FCF798FF2020FEF72AFC002000F010FA39
:10389000FEF781FD9AA210219C4801F0DDF99B4AB8
:1038A00000210120FEF799FE0720C04398490861D6
:1038B00000BFFEE797A001F0C1F900BF2DE08F48DF
:1038C0000078DD2829D18D484078FF2825D18B4804
:1038D00000790B2821D1012200210320FCF76AFF87
:1038E000012202210020FCF765FF2020FEF7F7FBF4
:1038F000002000F0DDF9FEF74EFD81A21021834883
:1039000001F0AAF9814A00210120FEF766FE072096
:10391000C0437F49086100BFFEE783480078002864
:103920001ED00020804908700021804800F0C5FFAB
:103930007E4800210B460A46009101906B216D489C
:1039400000F0F2FF00206B492423009101906048B1
:103950000278EE215F4801F00CF85E4801F025F88E
:103960007348007800281ED000207149087001219A
:103970006E4800F0A2FF6D4800210B460A460091F8
:1039800001906B215B4800F0CFFF002059492423B0
:10399000009101904E480278EE214E4800F0E9FF78
:1039A0004C4801F002F86348007800281ED000203F
:1039B0006049087002215D4800F07FFF5B480021EC
:1039C0000B460A46009101906B214A4800F0ACFF7B
:1039D000002048492423009101903D480278EE21BF
:1039E0003C4800F0C6FF3B4800F0DFFF524800783B
:1039F00000281ED000205049087003214B4800F0D9
:103A00005CFF4A4800210B460A46009101906B2159
:103A1000384800F089FF00203649242300910190A6
:103A20002B480278EE212B4800F0A3FF294800F034
:103A3000BCFF4248007800281ED000203F49087093
:103A400004213A4800F039FF384800210B460A4665
:103A5000009101906B21274800F066FF0020254966
:103A60002423009101901A480278EE21194800F0B1
:103A700080FF184800F099FF31480078002866D090
:103A800000202F4908700521284800F016FF27481C
:103A900000210B460A46009101906B21154800F069
:103AA00043FF002013492423009101900848027825
:103AB000EE21084846E04AE0D8000010CC00001093
:103AC000C4000010C8000010C0060010D000001094
:103AD000A400001078060010AC000010A800001030
:103AE000A6000010B4000010B0000010BC000010D0
:103AF000440600105C060010BC0500109C06001077
:103B000049276D20646965640000000020070010EB
:103B100000E000E06E6F7420777269746520636F57
:103B20006D6D616E640000000E010010C200001097
:103B30000F010010100100101101001013010010FE
:103B40001201001000F015FF204800F02EFF204861
:103B50000078002837D000201D4908701D491E48F4
:103B6000007800F0EDFD002829D02422002117481C
:103B700001F03FFA302217491848FCF763FB002098
:103B800003460246009015480168154800F09EFE65
:103B9000002000900346124A72210190114800F063
:103BA000C3FE00200F492423009101900A480278A7
:103BB000CC21064800F0DDFE044800F0F6FE0821A6
:103BC0000220FCF740FD30BFB7E50000780600108A
:103BD0000D010010F0060010A4000010D400001029
:103BE000280600105C0600100FB470B56946498ABB
:103BF000481E062101F030FA85B2681C06214843B0
:103C000084B26946088AA04201DD052606E06946BD
:103C1000098A481E062101F01FFA8EB2FEF7BBFB8F
:103C200000210846059AFEF7D8FC502300226621A1
:103C30001046FEF796FC672300226C211046FEF723
:103C400090FC2023002272211046FEF78AFC2846B1
:103C50003130C3B2002278211046FEF782FC0024E6
:103C600020E06846418A062068430019401C8142D2
:103C70000BD10621694309198B0006A9CA58A11C5A
:103C8000C8B20121FEF7A9FC0AE00621694309191F
:103C90008B0006A9CA58A11CC8B20021FEF79DFCE2
:103CA000601C84B2B442DCDD70BC08BC04B01847B0
:103CB00010B50446002C0ED0012C10D17F20D04925
:103CC000C8600122CF4801681046FDF76EF8012058
:103CD000FCF7A9FF03E00120FCF7AFFF00BF00BF26
:103CE00010BD10B5C0B0022110A801870121418785
:103CF000C5A01F90C5A02090C8A11EA8C1607822B1
:103D000022A96846FCF79EFA1EA80FC8FFF76CFFB1
:103D1000FA20FEF72BF96BE0FEF792F90446012C2E
:103D200006D0022C1CD0052C33D0062C55D150E0E7
:103D300010A8408F012806DD10A8408F401E81B2D8
:103D400010A8418702E010A8018F4187782222A99C
:103D50006846FCF777FA1EA80FC8FFF745FF3DE05D
:103D600010A8418F008F814206DA10A8408F401CB6
:103D700081B210A8418702E0012010A9488778226B
:103D800022A96846FCF75EFA1EA80FC8FFF72CFFB1
:103D900024E010A8408F012802D0022816D10AE0A2
:103DA000002211460320FCF705FD0022012103201B
:103DB000FCF700FD0BE0012200210320FCF7FAFCD8
:103DC000012211460320FCF7F5FC00E000BF00BF14
:103DD00004E0002010A9488700E000BF00BF002CCD
:103DE00006D010A8408F002802D0FA20FEF7BEF8B7
:103DF00010A8408F00288FD140B010BD10B5C0B0C2
:103E0000022110A801870121418788A01F9089A065
:103E100020908DA11EA8C160782222A96846FCF7D7
:103E200011FA1EA80FC8FFF7DFFEC820FEF79EF8A4
:103E30005DE0FEF705F90446012C06D0022C1CD0EB
:103E4000052C33D0062C47D142E010A8408F012822
:103E500006DD10A8408F401E81B210A8418702E005
:103E600010A8018F4187782222A96846FCF7EAF959
:103E70001EA80FC8FFF7B8FE2FE010A8418F008FD3
:103E8000814206DA10A8408F401C81B210A84187F9
:103E900002E0012010A94887782222A96846FCF791
:103EA000D1F91EA80FC8FFF79FFE16E010A8408F9B
:103EB000012802D0022808D103E00120FFF7F8FE14
:103EC00004E00020FFF7F4FE00E000BF00BF04E0C4
:103ED000002010A9488700E000BF00BF002C06D0DA
:103EE00010A8408F002802D0FA20FEF73FF810A853
:103EF000408F00289DD140B010BD10B5C0B0022148
:103F000010A801870121418754A01F9054A0209040
:103F100057A11EA8C160782222A96846FCF792F931
:103F20001EA80FC8FFF760FEFA20FEF71FF861E039
:103F3000FEF786F80446012C06D0022C1CD0052C76
:103F400033D0062C4BD146E010A8408F012806DD67
:103F500010A8408F401E81B210A8418702E010A82F
:103F6000018F4187782222A96846FCF76BF91EA8C9
:103F70000FC8FFF739FE33E010A8418F008F814250
:103F800006DA10A8408F401C81B210A8418702E0D9
:103F9000012010A94887782222A96846FCF752F927
:103FA0001EA80FC8FFF720FE1AE010A8408F0128B6
:103FB00002D002280CD105E0002202211046FCF7B5
:103FC000F9FB06E0012202210020FCF7F3FB00E0F0
:103FD00000BF00BF04E0002010A9488700E000BF38
:103FE00000BF002C06D010A8408F002802D0FA2075
:103FF000FDF7BCFF10A8408F002899D140B010BD3C
:1040000000800140DC0000104C454400312E547506
:10401000726E206F6E204C4544000000322E5475A5
:10402000726E206F6666204C4544000053706561D7
:104030006B657200312E5475726E206F6E20537056
:1040400065616B6572000000322E5475726E206FD0
:10405000666620537065616B6572000046414E00D4
:10406000312E5475726E206F6E2046414E00000056
:10407000322E5475726E206F66662046414E0000E7
:1040800010B551480068401C4F49086001210020CC
:10409000FCF731FB0446002C08D04C480068401C5B
:1040A0004A49086001210020FCF758FB0321002049
:1040B000FCF721FB002806D00120454908700321A8
:1040C0000020FCF74BFB10BD10B504210120FCF7CC
:1040D00012FB002805D001203E4908700421FCF79E
:1040E0003DFB05210120FCF706FB00280CD03A48D7
:1040F00080693A4908603A480068401C38490860BD
:1041000005210120FCF72AFB08210120FCF7F3FA26
:10411000002805D00120334908700821FCF71EFB58
:1041200009210120FCF7E7FA002805D001202E49DB
:1041300008700921FCF712FB0A210120FCF7DBFAC9
:10414000002805D00120294908700A21FCF706FB48
:104150000B210120FCF7CFFA002805D001202449CB
:1041600008700B21FCF7FAFA10BD10B508210220E7
:10417000FCF7C1FA00280AD001201E490870082166
:104180000220FCF78CFA08210220FCF7E7FA10BDA8
:1041900010B502210320FCF7AEFA002803D002215B
:1041A0000320FCF7DBFA03210846FCF7A4FA0028F9
:1041B00008D0012010490870FFF731F903210846A3
:1041C000FCF7CCFA10BD0000E4000010E80000107D
:1041D000130100101201001000E000E008010010BF
:1041E000040100100E0100100F010010100100105A
:1041F000110100100D0100100C010010F0B587B086
:1042000005460C461646631C2246691C2846FEF7E6
:104210001BFCC7B200210120FDF7DDFAFEF73AFDD5
:10422000FEF739FD0120FEF749FDFEF777FD30600E
:10423000002F29D0FEF7AFF89A480178287801912D
:1042400000906B7898A2102103A800F005FD03AA46
:1042500000210120FEF7C1F920780090637897A231
:10426000102103A800F0F8FC03AA00210220FEF7A9
:10427000B4F995A2142103A8336800F0EDFC03AA59
:1042800000210320FEF7A9F907B0F0BD70B505467F
:104290000E46002400BF04E0285DFFF7ACF9601C67
:1042A000C4B2B442F8DB70BD70B505460E460024BA
:1042B00000BF04E0285DFCF79EFB601CC4B2B44262
:1042C000F8DB70BDF0B589B004468348FDF71DFDED
:1042D0000020FDF759FD2060206801F0ECF905464B
:1042E0007E4A7F4B01F0EAF900227E4B019100905B
:1042F00000F094FF0391029000F052FF07467A49C4
:10430000384602F07BFB054601F0FCFA20600320F2
:10431000FDF73AFD6060606801F0CDF905466F4A2F
:104320006F4B01F0CBF900226E4B0191009000F031
:1043300075FF0391029000F033FF07466A49384643
:1043400002F05CFB054601F0DDFA60600A2120689E
:1043500000F078FE0D460A21206800F073FE064644
:10436000334662A2152104A8009500F075FC04AA4A
:1043700000210420FEF731F9012009B0F0BDF0B5AD
:1043800085B00446002500260027002020706070BC
:10439000A07000210120FDF71EFAFEF737FEA21CD7
:1043A000611C2046FEF737FE60574542012020562B
:1043B0004642022020564742A21C611C2046FEF7BE
:1043C0002AFE2078401940B220706078801940B2EF
:1043D0006070A078C01940B2A0700023E35647A2D5
:1043E0001421684600F038FC6A4600210520FEF7DB
:1043F000F4F80123E35644A21421684600F02CFC93
:104400006A4600210620FEF7E8F80223E35641A29F
:104410001421684600F020FC6A4600210720FEF7C0
:10442000DCF805B0F0BD10B5044600210320FCF710
:10443000CCF9002802D00020207001E0012020707B
:1044400001210320FCF7C1F9002804D020780121C4
:104450000843207003E020780221084320700221E5
:104460000020FCF7B2F9002802D00020607001E0C3
:104470000120607001210846FCF7A7F9002802D04E
:104480000020A07001E00120A0700B210220FCF7A9
:104490009CF9002802D00120E07001E00020E070CB
:1044A00010BD0000A400001054656D703A20256412
:1044B0002E25642049443A256400000048756D3A71
:1044C0002025642E256400006C69676874202564CB
:1044D0002020202000000000009F24009A99999934
:1044E00099990D4000F88F4000002041566F6C7480
:1044F0006167653A2025642E256456004163632078
:10450000783A20256420200041636320793A2025F1
:1045100064202000416363207A3A20256420200033
:1045200010B5802208210020FCF73FFF0120FDF795
:104530001DFD002208210220FCF750F910BDF3B543
:1045400083B00746002207210220FCF733F90498C4
:10455000030002F0FAF9065B04193A40465B0A20B0
:10456000BC49087021204870002088700120C87064
:10457000002406E0B848015D201DB64A1154601CB5
:10458000C4B2062CF6DB42E01A20B24908702220A1
:104590004870002088700120C870002406E0AE48F2
:1045A000015D201DAB4A1154601CC4B2062CF6DB21
:1045B000002407E0A948015D20460A30A54A1154AD
:1045C000601CC4B2102CF5DB21E00220A149087068
:1045D000012048701BE002209E490870202048708E
:1045E00015E00A209B49087024204870002088703C
:1045F0000120C870002406E09748015D201D954AFF
:104600001154601CC4B2062CF6DB00E000BF00BFF2
:104610009048FEF7FFFD0290AA210020FCF775FFED
:104620000120FDF7A3FC0025BB210020FCF76DFF56
:10463000C2B228466D1C3A540120FDF797FC0026B3
:104640000CE08448815D0020FCF75FFFC2B2284681
:104650006D1C3A540120FDF789FC761C7D480078DA
:10466000B042EED800200299FCF74FFF78556D1C40
:10467000FF20F530FDF77AFC012038700021084654
:10468000FCF743FF0120FDF771FC00210846FCF711
:104690003CFFAA2807D0022208210020FCF785FE53
:1046A000002005B0F0BD0120FDF760FC00210846A8
:1046B000FCF72BFFBB2806D0022208210020FCF7C4
:1046C00074FE0020EDE70120FDF750FC61484078C2
:1046D000012806D0202807D0212808D022280CD174
:1046E00008E00B2001900BE00720019008E0132068
:1046F000019005E00320019002E00720019000BF37
:1047000000BF0026002509E000210846FCF7FDFE59
:1047100078550120FDF72AFC761C6D1C0198864215
:10472000F2D3012207210220FCF744F80120FDF713
:104730001DFC022208210020FCF737FEE8B2B0E79A
:1047400070B506460C46002521464548FEF77BFD20
:104750000546284670BD10B54248C06BC008C00071
:10476000401C4049C863012211461046FCF736F848
:1047700010BD10B50446FFF7EEFF0120FFF798FAD1
:104780007D20C000FDF7F2FB0020FFF791FA10BD7D
:1047900070B50446FFF7DFFF002505E02246012142
:1047A0000846FCF707F86D1C052DF7DB70BDFEB55C
:1047B00006460F46002E0AD12BA200210620FDF747
:1047C0000CFF2FA200210720FDF707FFFEBD0025EB
:1047D000002425E06C2C1DDC7B5D2BA204216846A7
:1047E00000F03AFA68460378A1B200220620FDF7ED
:1047F000B8FEA41D68464378A1B200220620FDF74A
:10480000B0FEA41D68468378A1B200220620FDF701
:10481000A8FEA41D1EA200210720FDF7DEFE6D1CD0
:10482000B542D7DB00BFD1E770B505460E4614464A
:1048300008210220FBF7C9FF002808D1214628469D
:10484000FFF77EFF6420FDF791FB012070BD002083
:10485000FCE700003E070010140100101E010010CC
:10486000A87200004040044020202020202020206A
:104870002020202020202020202020202000000098
:104880004661696C000000002530325820000000AD
:104890004F4B0000017042707047017042707047CA
:1048A0000160704710B54CB2047054B244705CB2F1
:1048B000847010BD0160426070470170704710B590
:1048C000029C017042708370C47010BDF8B504463C
:1048D0000D4616461F46256010223146201D00F069
:1048E00047FB042239462046143000F041FB0422E5
:1048F00020461830069900F03BFBF8BD1FB5044672
:10490000684680882080694609896180032203A95E
:10491000201DFBF797FC07990698E160A0600898B6
:104920002061099860611FBDF8B504460D46164622
:104930001F46632D0BD0652D0ED06B2D12D0722D1E
:1049400014D11C2231462046FBF77CFC0FE038785E
:104950002070787860700AE0182220460699FBF7EC
:1049600071FC04E007980078207000E000BF00BFF1
:10497000F8BDF8B504460D4616461F46257066700C
:10498000A7701C22201D0699FBF75CFC0798208469
:10499000F8BD10B50446242221460A4800F0E8FA82
:1049A00024210848FFF780FC10BD10B504462422DE
:1049B0002146044800F0DCFA24210248FFF766FC97
:1049C00010BD00004807001010B5002819DA8E4A03
:1049D00003071B0F083B9B089B00D2588307DC0E84
:1049E000FF23A3409A434B071B0E8407E40EA3400A
:1049F0001A43854B0407240F083CA408A4001A514D
:104A000018E0824A03231B02D21883089B00D25865
:104A10008307DC0EFF23A3409A434B071B0E84073A
:104A2000E40EA3401A43794B032424021B19840883
:104A3000A4001A5110BD38B5FBF7A9FCFBF710FD17
:104A40000320FBF7F0FC72480069C008C000704901
:104A5000086108460069012108436D490861012287
:104A600000210320FBF7BAFE012200210320FBF7FF
:104A7000A1FE012211460320FBF7B0FE01221146E0
:104A80000320FBF797FE012202210020FBF7A6FE80
:104A9000012202210020FBF78DFE5D484030C06BF3
:104AA000C008C0005A494031C8630846C06B0121A4
:104AB000084357494031C863012211461046FBF7AD
:104AC0008DFEFDF7F1FA2020FDF709FB7D20C000E7
:104AD000FDF74CFA4F4C5048844200D90FE02002B9
:104AE000000A401E4D49486107210020C043FFF7DE
:104AF0006BFF0020494988610720086100BF002042
:104B0000FCF75CFB022208210020FCF74EFCFDF7BD
:104B100099FEE1204002FBF7FAFE02211520FFF783
:104B200053FF002003460122042100901046FBF7AA
:104B3000ABFC04210120FBF786FD00200346012287
:104B400003210090FBF7A0FC03210020FBF77BFD75
:104B5000002003460122082100900220FBF794FC6C
:104B600008210220FBF76FFD0020034601220321EC
:104B700000900846FBF788FC03210846FBF763FD1D
:104B8000002003460122082100901046FBF77CFC20
:104B900008210120FBF757FD0020034601220921CF
:104BA00000901046FBF770FC09210120FBF74BFD3C
:104BB0000020034601220A2100901046FBF764FC06
:104BC0000A210120FBF73FFD0020034601220B21B3
:104BD00000901046FBF758FC0B210120FBF733FD3A
:104BE0000FA000F02BF8FA20FDF7C0F90120FCF728
:104BF000E5FA022208210120FCF7D7FBE121490256
:104C00000120FEF766FC38BD1CED00E000E100E08D
:104C10000040044080BB0000FFFFFF0000E000E018
:104C20000D0A0D0A46535F3131433134204D61691D
:104C30006E204D656E750D0A000000000FB4054929
:104C400010B503AA029800F03BFF10BC08BC04B0EA
:104C5000184700001C0000100FB47CB50C0009AA16
:104C6000009001D00019401E094B7B446946019019
:104C7000089800F00AFF002C054603D06946002082
:104C8000FBF737FB28467CBC08BC04B01847000083
:104C9000430E000070B5044685690068C10601D561
:104CA000302600E02026C00707D070BD626830467D
:104CB000A1689047206A401C20626D1EF6D570BD29
:104CC00070B5044685690078C00707D170BD626879
:104CD000A16820209047206A401C20626D1EF6D5F6
:104CE00070BD0000F7B5002575291068009914A65D
:104CF00011D000F01FFE002802DA404211A608E0A1
:104D0000009909688A0701D50FA602E0490704D572
:104D10000EA6012501E000F016FE009F00242437B6
:104D200004E000F0AFFF30313955641C0028F8D1A1
:104D30002B4632462146009800F037FEFEBD0000AB
:104D4000000000002D0000002B00000020000000EB
:104D5000F8B50F460188090502D5224C7C4402E0D3
:104D6000204C7C440E3405460021243508E016070B
:104D70001209360FA65D6E541E0732431B09491CEB
:104D800016461E43F3D1224604780023240705D596
:104D9000702F06D0002901D00223113200F005FE49
:104DA000F8BD01231032F9E770B504460D462146DF
:104DB000106800F0C8FD0023024629462046FFF790
:104DC000C7FF70BDD21DD308DB000CCBC0E730B4E9
:104DD000036820241268234303600823C36130BCA6
:104DE0000023B5E752250000F3B50446002081B04A
:104DF00020622046E1688847002872D0252802D02A
:104E00006268A168ABE0594F00267F442046E16804
:104E100088472028054608DB312D06D2781920382E
:104E20000078002801D00643F0E7B00701D5042040
:104E300086430020E0610746A0612A2D0AD028465B
:104E400001F0A8FD002827D0B8000019303D0090DF
:104E5000856119E00298BA00121902C891610290A6
:104E60002046E1688847012F054617D1E0690028F0
:104E70001FDA202086431CE000980A2180694843FD
:104E800000994019303888612046E1688847054616
:104E900001F080FD0028EFD1012F0AD02E2D08D17E
:104EA0002046E16888470546202006437F1C022FE4
:104EB000C3DBA069002803DA4042A0610120064359
:104EC000F00701D0102086436C2D0BD0682D09D03F
:104ED0004C2D3CD06A2D38D0742D38D07A2D36D058
:104EE00016E040E0E1682F4620468847B842054674
:104EF00009D16C2F29D001208002E16806432046A9
:104F00008847054604E06C2F1DD0FF200130064382
:104F1000002D28D028464138192803D80120C00286
:104F200006432035204626602946029A1646FBF79E
:104F3000F7F8002810D001280BD0F61DF008C000AB
:104F40000830029055E74020E1E78020D5E70020B7
:104F5000D3E7361D02964CE762682846A168904761
:104F6000206A401C44E7206AFEBD0000CC240000FB
:104F7000F8B5042A2CD3830712D00B78491C037090
:104F8000401C521E83070BD00B78491C0370401C39
:104F9000521E830704D00B78491C0370401C521E1C
:104FA0008B079B0F05D0C91ADF002023DE1B08C921
:104FB0000AE0FBF747F9F8BD1D4608C9FD401C464D
:104FC000B4402C4310C0121F042AF5D2F308C91AAA
:104FD000521EF0D40B78491C0370401C521EEAD4B8
:104FE0000B78491C0370401C012AE4D40978017035
:104FF000F8BDD2B210B513029A1813049A1800F033
:105000000EF810BD01E004C0091F0429FBD28B0774
:1050100001D50280801CC90700D0027070470029AA
:105020000BD0C30702D00270401C491E022904D3D2
:10503000830702D50280801C891EE3E70022EEE789
:105040000022DFE7002203098B422CD3030A8B42A4
:1050500011D300239C464EE003460B433CD4002270
:1050600043088B4231D303098B421CD3030A8B4282
:1050700001D394463FE0C3098B4201D3CB01C01A50
:10508000524183098B4201D38B01C01A524143091B
:105090008B4201D34B01C01A524103098B4201D309
:1050A0000B01C01A5241C3088B4201D3CB00C01A76
:1050B000524183088B4201D38B00C01A52414308EE
:1050C0008B4201D34B00C01A5241411A00D2014613
:1050D0005241104670475DE0CA0F00D049420310AC
:1050E00000D34042534000229C4603098B422DD3FB
:1050F000030A8B4212D3FC22890112BA030A8B42A3
:105100000CD3890192118B4208D3890192118B42F1
:1051100004D389013AD0921100E08909C3098B4276
:1051200001D3CB01C01A524183098B4201D38B01B9
:10513000C01A524143098B4201D34B01C01A52415C
:1051400003098B4201D30B01C01A5241C3088B42A1
:1051500001D3CB00C01A524183088B4201D38B008C
:10516000C01A5241D9D243088B4201D34B00C01A16
:105170005241411A00D20146634652415B1010462B
:1051800001D34042002B00D54942704763465B1073
:1051900000D3404201B50020C046C04602BD000019
:1051A0000246C80FC00781434B0030B54B405B003F
:1051B0009B0D20D01923DB06C91801231B0599423A
:1051C00020DB0324A40704251346AB400BD3002B9C
:1051D00004D1EB0613409B00E34204D4012464078E
:1051E000002312195941FF231B0599420BD2C90014
:1051F0000143500F09E0CB0204D5014308030243E9
:1052000005D0054830BDFF21C905084330BD08461B
:1052100007210905884330BD0000C07FF0B5F94D76
:105220000C091E092C402E402F468BB0A7437DD081
:10523000B543FCD0002E7AD0002CFCD00D465D404A
:10524000ED0F2543AC1BFF25AD0464190894C5027E
:10525000440DC9022143500DDC0204430120C00764
:1052600001430443D2020191200C110C00958C469D
:10527000010423468B430A9161460904E24D8A43A7
:105280000991010A7D4449198039097805464D4341
:1052900001266D18F605751B6943C90C640B891C42
:1052A0004C436418B5012C1B250C2E04B4434C430D
:1052B0004D43210C691889090591009DE90701D02A
:1052C0000121C90704912C4601996708CD072F4396
:1052D0004C08059DE10B4D432D0C29466646754350
:1052E00002950D4645432E46029D7D1BB441009517
:1052F0000D465D4301942C0C2F040D465543AE46DC
:105300002D0C3D43029503947546049C2D04641BAB
:10531000049406D2029C039D641C002675410395EB
:10532000029401AC70CC009F7D1B01E03EE162E184
:10533000B44109040095079101940599A4086143BB
:10534000090C0C464443650BE7040C46664674435F
:10535000A646640B3C43039502947446049DE40402
:105360002C1B049406D2029C039D641C00267541EC
:105370000395029401AC70CC009F7D1BB441019455
:105380000C465C430095650FE7000C465443A64667
:10539000640F3C43039502947446049DE4002C1B67
:1053A000049406D2029C039D641C0026754103955B
:1053B000029401AC70CC009F7D1BB441AE09AF06D6
:1053C000049DC900AD092F43049DA406AD060495B4
:1053D000079D344369180791059DE10B4D432D0C42
:1053E00029466646754302950D4645432E46029D65
:1053F0007D1BB44100950D465D4301942C0C2F0498
:105400000D465543AE462D0C3D430295039475461B
:10541000049C2D04641B049406D2029C039D641C0E
:10542000002675410395029401AC70CC009F7D1B52
:10543000B44101948C050694079C890A6118009573
:105440000791019C0599A4086143090C0D46454349
:10545000680BEF040D46644665436C0B3C43049FA8
:10546000ED047D1BAC4602D20025641C6841009E01
:10547000019D371B85410846584301950C46460F50
:10548000C5005443600F28436546E4002C1B02D23C
:105490000025401C6E41019D3F1AB5412846BD09BB
:1054A000800628438446A009BF064E020699A4063A
:1054B00076180743079D002068410A990790194311
:1054C0000020099B00906046FF1913434041E20F02
:1054D00064003A43A4460446D71A8C41A04203D93B
:1054E0000120009020463A46C70F9418404162467A
:1054F000D20F2243644664000494009CBE466400BC
:10550000D71AA446044602978C417746002F01D152
:10551000A04204D96046401C8446029A2046C40F2B
:10552000A64694184041049A0546D20F2243644689
:105530006400D31A8D417146002901D1A84202D9D5
:1055400028461A46641C10430122002800D0164346
:1055500061020020079B891904465C410223002C4C
:1055600002DB491813466441089DCE0A2D145D19CB
:105570004B056705E10A2C050D1908993E43C9073B
:105580006940002B08D0934006D30022761C51417D
:10559000002B01D1760876001C4A002D43DB154212
:1055A00041D0AA433FD030460BB0F0BD06180D469F
:1055B0004D41174C7642AC411AD395181C465C41BC
:1055C000134A6D42A24113D3012252054C00D4422A
:1055D0000AD15C00D4420BD04B4002D59202114359
:1055E000E2E749004908DFE75940C90FC90718E059
:1055F00000200849D8E7054801420DD10342F7D001
:10560000F2E700000000FF07632000000000F07FC9
:105610000000E0FF0000F87F114859400143C0122C
:1056200041400020C0E70123089A9B069A4205DC0E
:10563000032252078918C90FC907B5E70522520787
:105640008918074A1143D2125140ADE770B515468B
:105650001C4602460B4628462146FFF7DFFD70BD7B
:10566000FFFFFF7F1F22030C02D10F22000402D094
:10567000030E03D004E00020014670470002083A00
:10568000030F01D10001121F830F01D18000921E70
:10569000002801DB4000521E120551184205C012BD
:1056A000411810467047C10FC90700D0404201227F
:1056B00092071143D6E701218907D3E7F0B58B4C58
:1056C0000F09254689B0BD437BD01D092646AE4350
:1056D000FAD00E465E402740F60F3E43254071D07B
:1056E00024012142FBD0FF24AD19A4042D1B0395F6
:1056F00001252D05DB02DB0AC9022B43C90A294318
:105700001E010901040F130F050121431701880B26
:10571000820391432D098C46A90B1E438A039543AE
:10572000B30B9A0396433F09BA0B9403A74302961F
:105730002E467E430497B6464E19D7190C4601965D
:10574000544305977E43371B7646BF1B3601B6464A
:10575000BE0B361900967646BC043719009C01D35F
:10576000641C00946400002F01D001263443029E83
:10577000049F754366467E430496760034196E0096
:1057800034190094029C019E1C196643751BAE4699
:10579000069465464519059C05956C435943754625
:1057A0000891691A0191049E01465143A41B04917A
:1057B000611A009C0791E10605D06109012211439D
:1057C00002E072E06EE06109089D00272C0A2D06B8
:1057D0006918049D7C412A0A2D066918019D6241C1
:1057E000AC0DAD026D185441079A910D92025519F6
:1057F0006141029A644658435443069B059A5A43B2
:10580000121A131B9A0E9B015B187A41010B0005BB
:10581000C3185141220A200644195A419A4200D223
:10582000491C01204002814203D315230226F6437E
:1058300002E014230326F6432020C51AA940174688
:10584000AF40DA400A4320460399D8400914731840
:1058500019055118039A3843D2075140AC4009D07A
:105860000122944006D30022401C5141002C01D15A
:10587000400840001E4A934212D301220398920628
:10588000904207DB0520400709181A480143C0125F
:10589000414004E0032040070818C10FC907002059
:1058A00009B0F0BD0020F107FAE705180C464C419D
:1058B00011486D42A04115D394181A465A410E481A
:1058C000644290410ED301204A004005824209D330
:1058D0005A00824206D35940C90F084AC90700201E
:1058E0001143DDE700200649DAE700000000FF076A
:1058F000FE070000FFFFFF7F0000E0FF0000F07FD9
:105900000000F87F0102C21504D00123DB07194310
:10591000002A0ADB9E239A1A02D40846D040704718
:10592000FF2241001206914201D900207047C017A2
:10593000C043704709684A0501D540B27047C905A0
:10594000FCD500B2704709684A0501D5C0B270475E
:10595000C905FCD580B2704770B50C460546012AD2
:1059600005D02878800600D5EA69002302E00123EB
:1059700005E05B1C934202D2E05C0028F9D1A869E3
:10598000E618C01AA861286AC01828622846FFF7DE
:1059900081F904E06A682078A968641C9047B442E1
:1059A000F8D32846FFF78CF970BDFFB504460D46C5
:1059B00081B0243000902168880604D51022E06967
:1059C0009143216000E00120A84201DD471B00E077
:1059D00000270498A1697A191018081AA061207884
:1059E000C00602D42046FFF755F9002608E00398C8
:1059F0006268A168805D9047206A401C761C206226
:105A000004988642F3DB2078C0060AD52046FFF7CB
:105A100041F906E06268A16830209047206A401C86
:105A2000206238467F1E0028F4DC07E00098626898
:105A3000A168405D9047206A401C206228466D1E88
:105A40000028F3DC2046FFF73BF92078000602D55A
:105A5000022005B0F0BD0120FBE711680268006A72
:105A6000530501D5087009E0D30501D5088005E08C
:105A7000130602D5C21705C100E008600120704777
:105A800001694A1C02610878704700B58FB0029125
:105A90000021059105490193794403911146049031
:105AA0006846FFF7A1F90FB000BD0000E5FFFFFF5A
:105AB0004B680A689A4202D2531C0B601070704700
:105AC000084B70B50D467B44FFF7DFFF04462846C0
:105AD000FBF71AF8002802D00020C04370BD204612
